{
  "contractName": "DappToken",
  "abi": [
    {
      "constant": true,
      "inputs": [],
      "name": "totalSupply",
      "outputs": [
        {
          "name": "",
          "type": "uint256"
        }
      ],
      "payable": false,
      "stateMutability": "view",
      "type": "function"
    },
    {
      "inputs": [],
      "payable": false,
      "stateMutability": "nonpayable",
      "type": "constructor"
    }
  ],
  "bytecode": "0x60606040523415600e57600080fd5b620f4240600081905550609c806100266000396000f300606060405260043610603f576000357c0100000000000000000000000000000000000000000000000000000000900463ffffffff16806318160ddd146044575b600080fd5b3415604e57600080fd5b6054606a565b6040518082815260200191505060405180910390f35b600054815600a165627a7a72305820d703cda6e80abcef955f3eb115bc86bcec60e91e75fbb6c47d11b742a625b74e0029",
  "source": "pragma solidity ^0.4.18;\n\ncontract DappToken {\n    // Constructor\n    // Set the total number of tokens\n    // Read the total number of tokens\n    uint256 public totalSupply;\n\n    function DappToken() public {\n        totalSupply = 1000000;\n    }\n}\n",
  "sourcePath": "/home/kleber/TCC2/contracts/DappToken.sol",
  "compiler": {
    "name": "solc",
    "version": "0.4.18+commit.9cf6e910.Emscripten.clang"
  },
  "schemaVersion": "1.0.1",
  "updatedAt": "2019-09-09T23:02:07.043Z"
}